:100000000C942A000C9447000C9447000C94470071
:100010000C9447000C9447000C9447000C94470044
:100020000C9447000C9447000C9447000C94470034
:100030000C9447000C9447000C9447000C94470024
:100040000C9447000C9447000C9447000C94470014
:100050000C94470011241FBECFE5D8E0DEBFCDBF12
:1000600010E0A0E6B0E0EAE7F5E002C005900D92EE
:10007000A636B107D9F710E0A6E6B0E001C01D92A0
:10008000A836B107E1F70E94A7000C94BB020C94BC
:1000900000001F9310C00E946101982F80936000A0
:1000A00086FF09C082958370823029F496959695D3
:1000B0009370909367000E945C01882361F78091A0
:1000C000600086FF05C0109167001092660019C09D
:1000D00087FD04C01092660010E013C082E690E035
:1000E0000E94E0000197439710F485E007C08091DB
:1000F0006600882311F411E004C0815080936600EB
:1001000012E080916100181769F0812F0E94B700FA
:1001100040E0123009F441E083E064E00E94F7011E
:10012000109361001F9108950E94C3000E94500126
:1001300082E690E00E94380183E064E041E00E94A2
:10014000890183E064E040E00E94F7010895CF93C5
:10015000DF930E949400C8ECD0E00E94490084EF35
:1001600091E0FE013197F1F70197D9F7F6CF813091
:1001700021F0823021F486EE03C080E401C080E0EB
:100180000E948701089581E063E041E00E948901B7
:100190000E94830108950F931F938C01FC018081BD
:1001A000618141E00E94F7018AE18A95F1F7F80147
:1001B0008081618140E00E94F7011F910F910895B5
:1001C000EF92FF920F931F930E94CB000E94650154
:1001D00081E00E9469010E947201EE24FF248701E0
:1001E0000EC00894E11CF11C011D111D81EAE816E6
:1001F00086E8F80681E0080780E01807F9F00E9419
:100200007501882371F380E090E00E947E0180E018
:100210000E9469010E947201EE24FF24870113C02D
:100220000894E11CF11C011D111D81EAE81686E805
:10023000F80681E0080780E0180729F40E94810190
:1002400027EE33E00FC00E947501882349F30E9416
:100250007A018C010E948101C8016AE370E00E946A
:10026000A7029B01C9011F910F91FF90EF90089584
:100270000F931F938C01FC018081618141E00E94FA
:100280008901F8018281638140E00E948901F801BF
:100290008081618140E00E94F7011F910F910895D4
:1002A00010BC83E389B988E18AB986E880BD0895E6
:1002B0005D9BFECF8CB908958BB1881F8827881F5E
:1002C00008955F9BFECF8CB108951FBC82E08EBD68
:1002D0000895813019F48EB5806402C08EB58F7B8D
:1002E0008EBD089580E288BF089588B7829586956F
:1002F0008170089526B537B5C90108959DBD8CBD9F
:1003000008951EBC089582E683BF1CBE08958CBF6D
:100310000895813009F1813030F08230B1F18330BD
:1003200009F064C04BC0413059F42AB381E090E039
:1003300002C0880F991F6A95E2F7282B2ABB0895FF
:100340002AB381E090E002C0880F991F6A95E2F716
:10035000809582238ABB0895413059F427B381E008
:1003600090E002C0880F991F6A95E2F7282B27BBFF
:10037000089527B381E090E002C0880F991F6A9525
:10038000E2F78095822387BB0895413059F424B366
:1003900081E090E002C0880F991F6A95E2F7282B50
:1003A00024BB089524B381E090E002C0880F991F18
:1003B0006A95E2F78095822384BB0895413059F411
:1003C00021B381E090E002C0880F991F6A95E2F79F
:1003D000282B21BB089521B381E090E002C0880F53
:1003E000991F6A95E2F78095822381BB0895813039
:1003F00009F1813030F08230B1F1833009F064C00E
:100400004BC0413059F42BB381E090E002C0880F1B
:10041000991F6A95E2F7282B2BBB08952BB381E037
:1004200090E002C0880F991F6A95E2F780958223B9
:100430008BBB0895413059F428B381E090E002C0AD
:10044000880F991F6A95E2F7282B28BB089528B3D7
:1004500081E090E002C0880F991F6A95E2F78095CD
:10046000822388BB0895413059F425B381E090E0A0
:1004700002C0880F991F6A95E2F7282B25BB0895C3
:1004800025B381E090E002C0880F991F6A95E2F7DA
:100490008095822385BB0895413059F422B381E0D1
:1004A00090E002C0880F991F6A95E2F7282B22BBC3
:1004B000089522B381E090E002C0880F991F6A95E9
:1004C000E2F78095822382BB0895813051F081301C
:1004D00030F0823041F0833079F080E0089589B3C4
:1004E00003C086B301C083B390E002C095958795A1
:1004F0006A95E2F78170089580B390E002C0959507
:1005000087956A95E2F781700895813049F08130CE
:1005100028F0823039F0833041F406C06ABB089578
:1005200067BB089564BB089561BB0895813049F0AD
:10053000813028F0823039F0833041F406C06BBB43
:10054000089568BB089565BB089562BB0895AA1B12
:10055000BB1B51E107C0AA1FBB1FA617B70710F0AE
:10056000A61BB70B881F991F5A95A9F780959095E0
:0A057000BC01CD010895F894FFCFFF
:06057A0080FF03030306ED
:00000001FF
